:020000040800F2
:10000000780600208901000891010008930100088A
:100010009501000897010008990100080000000000
:100020000000000000000000000000009B0100082C
:100030009D010008000000009F01000891040008D5
:10004000A3010008A3010008A3010008A301000800
:10005000A3010008A3010008A3010008A3010008F0
:10006000A3010008A3010008A3010008A3010008E0
:10007000A3010008A3010008A3010008A3010008D0
:10008000A3010008A3010008A3010008A3010008C0
:10009000A3010008A3010008A3010008A3010008B0
:1000A000A3010008A3010008A3010008A3010008A0
:1000B000A3010008A3010008000000004502000899
:1000C000A30100080000000000000000A3010008D8
:1000D00000000000A3010008A301000800000000C8
:1000E000A3010008A3010008A301000800F002F822
:1000F00000F03AF80AA090E8000C82448344AAF188
:100100000107DA4501D100F02FF8AFF2090EBAE885
:100110000F0013F0010F18BFFB1A43F0010318473B
:1001200098040000B8040000103A24BF78C878C1D1
:10013000FAD8520724BF30C830C144BF04680C60ED
:10014000704700000023002400250026103A28BF35
:1001500078C1FBD8520728BF30C148BF0B60704739
:100160001FB51FBD10B510BD00F031F81146FFF7E7
:10017000F7FF00F009FA00F04FF803B4FFF7F2FFC1
:1001800003BC00F057F800000948804709480047C1
:10019000FEE7FEE7FEE7FEE7FEE7FEE7FEE7FEE737
:1001A000FEE7FEE704480549054A064B7047000094
:1001B000A1040008ED000008780000207806002067
:1001C000780200207802002070477047704775461B
:1001D00000F02CF8AE4605006946534620F00700B3
:1001E000854618B020B5FFF7DDFFBDE820404FF091
:1001F00000064FF000074FF000084FF0000B21F011
:100200000701AC46ACE8C009ACE8C009ACE8C009DD
:10021000ACE8C0098D46704710B50446AFF30080C6
:100220002046BDE81040FFF7A8BF00000048704717
:100230001800002001491820ABBEFEE7260002008E
:100240007047000008B52648008820F40070244953
:10025000088023481030008800F0020038B12048A0
:100260001030008800901E4814300088009000BFB5
:100270001B481030008800F040000028F8D01848D3
:100280000C30008800901648001F008840F4007071
:100290001349091F0880BDF80000122809D1082061
:1002A00010490860142000F053F94FF400200D4964
:1002B00008600B481030008800900948143000880E
:1002C00000900748001F008840F001000449091F02
:1002D0000880081D008840F40070091D088008BDD2
:1002E00004540040100801402448806940F0080090
:1002F000224988610846C06940F40010C861084678
:10030000806940F00100886100201D490860FF20DD
:1003100008604FF400401B4908800846008820F41C
:10032000004008802420091D0880B42015491C3194
:1003300008801448001D008840F400701149091D10
:1003400008800846008840F480600880081D008806
:1003500040F08200091D08800846008840F4804073
:1003600008800848008840F00100064908800846D7
:10037000008840F480600880704700000010024050
:10038000040C0140005400400548806940F004001E
:1003900003498861002003490860481408607047D9
:1003A000001002400008014010B500F001F810BD37
:1003B0000CB50020019000903348006840F4803074
:1003C0003149086000BF3048006800F400300090F8
:1003D0000198401C0190009818B90198B0F5A06FE1
:1003E000F1D12948006800F4003010B101200090DC
:1003F00001E0002000900098012843D123480068C4
:1004000040F01000214908600846006820F0030011
:1004100008600846006840F0020008601A4840681A
:10042000194948600846406848600846406840F4FA
:10043000806048600846406820F47C1048600846A8
:10044000406840F4E81048600846006840F080705A
:10045000086000BF0C48006800F000700028F9D068
:100460000948406820F00300074948600846406892
:1004700040F00200486000BF0348406800F00C00F4
:100480000828F9D10CBD00000010024000200240F5
:1004900002480068401C01490860704700000020C5
:1004A00010B51348006840F0010011490860084683
:1004B0004068104908400E494860084600680E49E7
:1004C00008400B4908600846006820F48020086056
:1004D0000846406820F4FE0048604FF41F00886022
:1004E000FFF762FF4FF000600449086010BD000094
:1004F000001002400000FFF8FFFFF6FE08ED00E0EC
:1005000010B51048006840F2E731B0FBF1F04FF051
:10051000E021486148170F21002804DB0A07130E69
:10052000094A135406E00A07140E084A00F00F03A4
:100530001B1FD45400BF00204FF0E021886106202B
:10054000086110BD0400002000E400E018ED00E0A8
:100550004FF0E021096941F001014FF0E022116103
:100560000021084A116000BF064909688142FBD397
:100570004FF0E021096921F001014FF0E022116103
:100580007047000000000020FFF7BAFF72B6FFF7C7
:10059000ABFEFFF7F9FE1F20002809DB00F01F0269
:1005A000012191404209920002F1E022C2F80011BB
:1005B00000BF62B600BFFEE7D805000800000020BB
:1005C0001800000028010008F005000818000020AD
:1005D00060060000440100080000000000A24A0478
:1005E00000000000000000000102030406070809E3
:040000050800018965
:00000001FF
